{
  "_format": "hh-sol-artifact-1",
  "contractName": "ExecutionVerifier",
  "sourceName": "contracts/execution-verifier/contract.sol",
  "abi": [
    {
      "inputs": [],
      "stateMutability": "nonpayable",
      "type": "constructor"
    },
    {
      "inputs": [],
      "name": "AccessControlBadConfirmation",
      "type": "error"
    },
    {
      "inputs": [
        {
          "internalType": "address",
          "name": "account",
          "type": "address"
        },
        {
          "internalType": "bytes32",
          "name": "neededRole",
          "type": "bytes32"
        }
      ],
      "name": "AccessControlUnauthorizedAccount",
      "type": "error"
    },
    {
      "inputs": [],
      "name": "ArraysLengthMismatch",
      "type": "error"
    },
    {
      "inputs": [
        {
          "internalType": "uint256",
          "name": "size",
          "type": "uint256"
        },
        {
          "internalType": "uint256",
          "name": "maxSize",
          "type": "uint256"
        }
      ],
      "name": "BatchSizeTooLarge",
      "type": "error"
    },
    {
      "inputs": [],
      "name": "CannotRevokeFromAdmin",
      "type": "error"
    },
    {
      "inputs": [],
      "name": "CannotRevokeFromSelf",
      "type": "error"
    },
    {
      "inputs": [
        {
          "internalType": "bytes32",
          "name": "hash",
          "type": "bytes32"
        }
      ],
      "name": "HashAlreadyStored",
      "type": "error"
    },
    {
      "anonymous": false,
      "inputs": [
        {
          "indexed": true,
          "internalType": "bytes32",
          "name": "role",
          "type": "bytes32"
        },
        {
          "indexed": true,
          "internalType": "bytes32",
          "name": "previousAdminRole",
          "type": "bytes32"
        },
        {
          "indexed": true,
          "internalType": "bytes32",
          "name": "newAdminRole",
          "type": "bytes32"
        }
      ],
      "name": "RoleAdminChanged",
      "type": "event"
    },
    {
      "anonymous": false,
      "inputs": [
        {
          "indexed": true,
          "internalType": "bytes32",
          "name": "role",
          "type": "bytes32"
        },
        {
          "indexed": true,
          "internalType": "address",
          "name": "account",
          "type": "address"
        },
        {
          "indexed": true,
          "internalType": "address",
          "name": "sender",
          "type": "address"
        }
      ],
      "name": "RoleGranted",
      "type": "event"
    },
    {
      "anonymous": false,
      "inputs": [
        {
          "indexed": true,
          "internalType": "bytes32",
          "name": "role",
          "type": "bytes32"
        },
        {
          "indexed": true,
          "internalType": "address",
          "name": "account",
          "type": "address"
        },
        {
          "indexed": true,
          "internalType": "address",
          "name": "sender",
          "type": "address"
        }
      ],
      "name": "RoleRevoked",
      "type": "event"
    },
    {
      "inputs": [],
      "name": "DEFAULT_ADMIN_ROLE",
      "outputs": [
        {
          "internalType": "bytes32",
          "name": "",
          "type": "bytes32"
        }
      ],
      "stateMutability": "view",
      "type": "function"
    },
    {
      "inputs": [],
      "name": "MAX_BATCH_SIZE",
      "outputs": [
        {
          "internalType": "uint256",
          "name": "",
          "type": "uint256"
        }
      ],
      "stateMutability": "view",
      "type": "function"
    },
    {
      "inputs": [],
      "name": "STORE_ROLE",
      "outputs": [
        {
          "internalType": "bytes32",
          "name": "",
          "type": "bytes32"
        }
      ],
      "stateMutability": "view",
      "type": "function"
    },
    {
      "inputs": [
        {
          "internalType": "bytes32",
          "name": "role",
          "type": "bytes32"
        }
      ],
      "name": "getRoleAdmin",
      "outputs": [
        {
          "internalType": "bytes32",
          "name": "",
          "type": "bytes32"
        }
      ],
      "stateMutability": "view",
      "type": "function"
    },
    {
      "inputs": [
        {
          "internalType": "bytes32",
          "name": "role",
          "type": "bytes32"
        },
        {
          "internalType": "address",
          "name": "account",
          "type": "address"
        }
      ],
      "name": "grantRole",
      "outputs": [],
      "stateMutability": "nonpayable",
      "type": "function"
    },
    {
      "inputs": [
        {
          "internalType": "address[]",
          "name": "addresses",
          "type": "address[]"
        }
      ],
      "name": "grantStoreRoleBatch",
      "outputs": [],
      "stateMutability": "nonpayable",
      "type": "function"
    },
    {
      "inputs": [
        {
          "internalType": "bytes32",
          "name": "role",
          "type": "bytes32"
        },
        {
          "internalType": "address",
          "name": "account",
          "type": "address"
        }
      ],
      "name": "hasRole",
      "outputs": [
        {
          "internalType": "bool",
          "name": "",
          "type": "bool"
        }
      ],
      "stateMutability": "view",
      "type": "function"
    },
    {
      "inputs": [
        {
          "internalType": "address[]",
          "name": "addresses",
          "type": "address[]"
        }
      ],
      "name": "hasStoreRoleBatch",
      "outputs": [
        {
          "internalType": "bool[]",
          "name": "",
          "type": "bool[]"
        }
      ],
      "stateMutability": "view",
      "type": "function"
    },
    {
      "inputs": [
        {
          "internalType": "bytes32",
          "name": "",
          "type": "bytes32"
        }
      ],
      "name": "isStored",
      "outputs": [
        {
          "internalType": "address",
          "name": "",
          "type": "address"
        }
      ],
      "stateMutability": "view",
      "type": "function"
    },
    {
      "inputs": [
        {
          "internalType": "bytes32",
          "name": "role",
          "type": "bytes32"
        },
        {
          "internalType": "address",
          "name": "callerConfirmation",
          "type": "address"
        }
      ],
      "name": "renounceRole",
      "outputs": [],
      "stateMutability": "nonpayable",
      "type": "function"
    },
    {
      "inputs": [
        {
          "internalType": "bytes32",
          "name": "role",
          "type": "bytes32"
        },
        {
          "internalType": "address",
          "name": "account",
          "type": "address"
        }
      ],
      "name": "revokeRole",
      "outputs": [],
      "stateMutability": "nonpayable",
      "type": "function"
    },
    {
      "inputs": [
        {
          "internalType": "address[]",
          "name": "addresses",
          "type": "address[]"
        }
      ],
      "name": "revokeStoreRoleBatch",
      "outputs": [],
      "stateMutability": "nonpayable",
      "type": "function"
    },
    {
      "inputs": [
        {
          "internalType": "bytes32",
          "name": "hash",
          "type": "bytes32"
        },
        {
          "internalType": "address",
          "name": "userAddress",
          "type": "address"
        }
      ],
      "name": "storeHash",
      "outputs": [],
      "stateMutability": "nonpayable",
      "type": "function"
    },
    {
      "inputs": [
        {
          "internalType": "bytes32[]",
          "name": "hashes",
          "type": "bytes32[]"
        },
        {
          "internalType": "address[]",
          "name": "userAddresses",
          "type": "address[]"
        }
      ],
      "name": "storeHashBatch",
      "outputs": [],
      "stateMutability": "nonpayable",
      "type": "function"
    },
    {
      "inputs": [
        {
          "internalType": "bytes4",
          "name": "interfaceId",
          "type": "bytes4"
        }
      ],
      "name": "supportsInterface",
      "outputs": [
        {
          "internalType": "bool",
          "name": "",
          "type": "bool"
        }
      ],
      "stateMutability": "view",
      "type": "function"
    }
  ],
  "bytecode": "0x60806040523480156200001157600080fd5b50620000276000801b336200006160201b60201c565b506200005a7f9cf888df9829983a4501c3e5076732bbf523e06c6b31f6ce065f61c2aec20567336200006160201b60201c565b50620001d6565b60006200007583836200016460201b60201c565b6200015957600160008085815260200190815260200160002060000160008473ffffffffffffffffffffffffffffffffffffffff1673ffffffffffffffffffffffffffffffffffffffff16815260200190815260200160002060006101000a81548160ff021916908315150217905550620000f5620001ce60201b60201c565b73ffffffffffffffffffffffffffffffffffffffff168273ffffffffffffffffffffffffffffffffffffffff16847f2f8788117e7eff1d82e926ec794901d17c78024a50270940304540a733656f0d60405160405180910390a4600190506200015e565b600090505b92915050565b600080600084815260200190815260200160002060000160008373ffffffffffffffffffffffffffffffffffffffff1673ffffffffffffffffffffffffffffffffffffffff16815260200190815260200160002060009054906101000a900460ff16905092915050565b600033905090565b6114a380620001e66000396000f3fe608060405234801561001057600080fd5b50600436106100f55760003560e01c8063867e7a1211610097578063cea1283c11610066578063cea1283c14610296578063cfdbf254146102b2578063d547741f146102d0578063e907aad4146102ec576100f5565b8063867e7a12146101fc5780638e22afa31461022c57806391d1485414610248578063a217fddf14610278576100f5565b80632f2ff15d116100d35780632f2ff15d1461017857806336568abe146101945780633f42aeab146101b057806385f09f12146101e0576100f5565b806301ffc9a7146100fa578063248a9ca31461012a578063265d83b91461015a575b600080fd5b610114600480360381019061010f9190610f3b565b610308565b6040516101219190610f83565b60405180910390f35b610144600480360381019061013f9190610fd4565b610382565b6040516101519190611010565b60405180910390f35b6101626103a1565b60405161016f9190611010565b60405180910390f35b610192600480360381019061018d9190611089565b6103c5565b005b6101ae60048036038101906101a99190611089565b6103e7565b005b6101ca60048036038101906101c59190610fd4565b610462565b6040516101d791906110d8565b60405180910390f35b6101fa60048036038101906101f59190611089565b610495565b005b61021660048036038101906102119190611158565b6105ba565b6040516102239190611263565b60405180910390f35b610246600480360381019061024191906112db565b6106f7565b005b610262600480360381019061025d9190611089565b61093a565b60405161026f9190610f83565b60405180910390f35b6102806109a4565b60405161028d9190611010565b60405180910390f35b6102b060048036038101906102ab9190611158565b6109ab565b005b6102ba610a7a565b6040516102c79190611375565b60405180910390f35b6102ea60048036038101906102e59190611089565b610a7f565b005b61030660048036038101906103019190611158565b610aa1565b005b60007f7965db0b000000000000000000000000000000000000000000000000000000007bffffffffffffffffffffffffffffffffffffffffffffffffffffffff1916827bffffffffffffffffffffffffffffffffffffffffffffffffffffffff1916148061037b575061037a82610c1f565b5b9050919050565b6000806000838152602001908152602001600020600101549050919050565b7f9cf888df9829983a4501c3e5076732bbf523e06c6b31f6ce065f61c2aec2056781565b6103ce82610382565b6103d781610c89565b6103e18383610c9d565b50505050565b6103ef610d8e565b73ffffffffffffffffffffffffffffffffffffffff168173ffffffffffffffffffffffffffffffffffffffff1614610453576040517f6697b23200000000000000000000000000000000000000000000000000000000815260040160405180910390fd5b61045d8282610d96565b505050565b60016020528060005260406000206000915054906101000a900473ffffffffffffffffffffffffffffffffffffffff1681565b7f9cf888df9829983a4501c3e5076732bbf523e06c6b31f6ce065f61c2aec205676104bf81610c89565b600073ffffffffffffffffffffffffffffffffffffffff166001600085815260200190815260200160002060009054906101000a900473ffffffffffffffffffffffffffffffffffffffff1673ffffffffffffffffffffffffffffffffffffffff161461056357826040517f37d4d13300000000000000000000000000000000000000000000000000000000815260040161055a9190611010565b60405180910390fd5b816001600085815260200190815260200160002060006101000a81548173ffffffffffffffffffffffffffffffffffffffff021916908373ffffffffffffffffffffffffffffffffffffffff160217905550505050565b6060601483839050111561060b578282905060146040517f01df19f6000000000000000000000000000000000000000000000000000000008152600401610602929190611390565b60405180910390fd5b60008383905067ffffffffffffffff81111561062a576106296113b9565b5b6040519080825280602002602001820160405280156106585781602001602082028036833780820191505090505b50905060005b848490508110156106ec576106ba7f9cf888df9829983a4501c3e5076732bbf523e06c6b31f6ce065f61c2aec205678686848181106106a05761069f6113e8565b5b90506020020160208101906106b59190611417565b61093a565b8282815181106106cd576106cc6113e8565b5b602002602001019015159081151581525050808060010191505061065e565b508091505092915050565b7f9cf888df9829983a4501c3e5076732bbf523e06c6b31f6ce065f61c2aec2056761072181610c89565b828290508585905014610760576040517ffc23596000000000000000000000000000000000000000000000000000000000815260040160405180910390fd5b60148585905011156107af578484905060146040517f01df19f60000000000000000000000000000000000000000000000000000000081526004016107a6929190611390565b60405180910390fd5b60005b8585905081101561093257600073ffffffffffffffffffffffffffffffffffffffff16600160008888858181106107ec576107eb6113e8565b5b90506020020135815260200190815260200160002060009054906101000a900473ffffffffffffffffffffffffffffffffffffffff1673ffffffffffffffffffffffffffffffffffffffff1614610893578585828181106108505761084f6113e8565b5b905060200201356040517f37d4d13300000000000000000000000000000000000000000000000000000000815260040161088a9190611010565b60405180910390fd5b8383828181106108a6576108a56113e8565b5b90506020020160208101906108bb9190611417565b600160008888858181106108d2576108d16113e8565b5b90506020020135815260200190815260200160002060006101000a81548173ffffffffffffffffffffffffffffffffffffffff021916908373ffffffffffffffffffffffffffffffffffffffff16021790555080806001019150506107b2565b505050505050565b600080600084815260200190815260200160002060000160008373ffffffffffffffffffffffffffffffffffffffff1673ffffffffffffffffffffffffffffffffffffffff16815260200190815260200160002060009054906101000a900460ff16905092915050565b6000801b81565b6000801b6109b881610c89565b6014838390501115610a07578282905060146040517f01df19f60000000000000000000000000000000000000000000000000000000081526004016109fe929190611390565b60405180910390fd5b60005b83839050811015610a7457610a667f9cf888df9829983a4501c3e5076732bbf523e06c6b31f6ce065f61c2aec20567858584818110610a4c57610a4b6113e8565b5b9050602002016020810190610a619190611417565b610c9d565b508080600101915050610a0a565b50505050565b601481565b610a8882610382565b610a9181610c89565b610a9b8383610d96565b50505050565b6000801b610aae81610c89565b6014838390501115610afd578282905060146040517f01df19f6000000000000000000000000000000000000000000000000000000008152600401610af4929190611390565b60405180910390fd5b60005b83839050811015610c19576000848483818110610b2057610b1f6113e8565b5b9050602002016020810190610b359190611417565b9050610b446000801b8261093a565b15610b7b576040517f032879ea00000000000000000000000000000000000000000000000000000000815260040160405180910390fd5b3373ffffffffffffffffffffffffffffffffffffffff168173ffffffffffffffffffffffffffffffffffffffff1603610be0576040517f8dd3e5d600000000000000000000000000000000000000000000000000000000815260040160405180910390fd5b610c0a7f9cf888df9829983a4501c3e5076732bbf523e06c6b31f6ce065f61c2aec2056782610d96565b50508080600101915050610b00565b50505050565b60007f01ffc9a7000000000000000000000000000000000000000000000000000000007bffffffffffffffffffffffffffffffffffffffffffffffffffffffff1916827bffffffffffffffffffffffffffffffffffffffffffffffffffffffff1916149050919050565b610c9a81610c95610d8e565b610e88565b50565b6000610ca9838361093a565b610d8357600160008085815260200190815260200160002060000160008473ffffffffffffffffffffffffffffffffffffffff1673ffffffffffffffffffffffffffffffffffffffff16815260200190815260200160002060006101000a81548160ff021916908315150217905550610d20610d8e565b73ffffffffffffffffffffffffffffffffffffffff168273ffffffffffffffffffffffffffffffffffffffff16847f2f8788117e7eff1d82e926ec794901d17c78024a50270940304540a733656f0d60405160405180910390a460019050610d88565b600090505b92915050565b600033905090565b6000610da2838361093a565b15610e7d57600080600085815260200190815260200160002060000160008473ffffffffffffffffffffffffffffffffffffffff1673ffffffffffffffffffffffffffffffffffffffff16815260200190815260200160002060006101000a81548160ff021916908315150217905550610e1a610d8e565b73ffffffffffffffffffffffffffffffffffffffff168273ffffffffffffffffffffffffffffffffffffffff16847ff6391f5c32d9c69d2a47ea670b442974b53935d1edc7fd64eb21e047a839171b60405160405180910390a460019050610e82565b600090505b92915050565b610e92828261093a565b610ed55780826040517fe2517d3f000000000000000000000000000000000000000000000000000000008152600401610ecc929190611444565b60405180910390fd5b5050565b600080fd5b600080fd5b60007fffffffff0000000000000000000000000000000000000000000000000000000082169050919050565b610f1881610ee3565b8114610f2357600080fd5b50565b600081359050610f3581610f0f565b92915050565b600060208284031215610f5157610f50610ed9565b5b6000610f5f84828501610f26565b91505092915050565b60008115159050919050565b610f7d81610f68565b82525050565b6000602082019050610f986000830184610f74565b92915050565b6000819050919050565b610fb181610f9e565b8114610fbc57600080fd5b50565b600081359050610fce81610fa8565b92915050565b600060208284031215610fea57610fe9610ed9565b5b6000610ff884828501610fbf565b91505092915050565b61100a81610f9e565b82525050565b60006020820190506110256000830184611001565b92915050565b600073ffffffffffffffffffffffffffffffffffffffff82169050919050565b60006110568261102b565b9050919050565b6110668161104b565b811461107157600080fd5b50565b6000813590506110838161105d565b92915050565b600080604083850312156110a05761109f610ed9565b5b60006110ae85828601610fbf565b92505060206110bf85828601611074565b9150509250929050565b6110d28161104b565b82525050565b60006020820190506110ed60008301846110c9565b92915050565b600080fd5b600080fd5b600080fd5b60008083601f840112611118576111176110f3565b5b8235905067ffffffffffffffff811115611135576111346110f8565b5b602083019150836020820283011115611151576111506110fd565b5b9250929050565b6000806020838503121561116f5761116e610ed9565b5b600083013567ffffffffffffffff81111561118d5761118c610ede565b5b61119985828601611102565b92509250509250929050565b600081519050919050565b600082825260208201905092915050565b6000819050602082019050919050565b6111da81610f68565b82525050565b60006111ec83836111d1565b60208301905092915050565b6000602082019050919050565b6000611210826111a5565b61121a81856111b0565b9350611225836111c1565b8060005b8381101561125657815161123d88826111e0565b9750611248836111f8565b925050600181019050611229565b5085935050505092915050565b6000602082019050818103600083015261127d8184611205565b905092915050565b60008083601f84011261129b5761129a6110f3565b5b8235905067ffffffffffffffff8111156112b8576112b76110f8565b5b6020830191508360208202830111156112d4576112d36110fd565b5b9250929050565b600080600080604085870312156112f5576112f4610ed9565b5b600085013567ffffffffffffffff81111561131357611312610ede565b5b61131f87828801611285565b9450945050602085013567ffffffffffffffff81111561134257611341610ede565b5b61134e87828801611102565b925092505092959194509250565b6000819050919050565b61136f8161135c565b82525050565b600060208201905061138a6000830184611366565b92915050565b60006040820190506113a56000830185611366565b6113b26020830184611366565b9392505050565b7f4e487b7100000000000000000000000000000000000000000000000000000000600052604160045260246000fd5b7f4e487b7100000000000000000000000000000000000000000000000000000000600052603260045260246000fd5b60006020828403121561142d5761142c610ed9565b5b600061143b84828501611074565b91505092915050565b600060408201905061145960008301856110c9565b6114666020830184611001565b939250505056fea26469706673582212202ed5dd61cac04703a370373af6632d1b5c7a4fb8acba7fed6bd2db2e7dfcaa0764736f6c63430008180033",
  "linkReferences": {},
  "deployedLinkReferences": {}
}